:0300000002191AC8
:0300330002188B25
:10080000020BC1E86480F8E933E83360110460F05A
:10081000ED33EC337009E8FCE9FDEAFEEBFF22045E
:1008200060DED3EB9FEA9EE99DE8C2E78CF0C2F759
:1008300095F0400CE8CCF8E9CDF9EACEFAEBCFFB25
:10084000120B8C85D0F05804700320D5B3E80470E7
:10085000075002B2D5020BCB92D5EC0460F7E4CC82
:10086000C0E0C398F8603B94186008400DD0E0FBEE
:10087000020BA3E4FBFAC9FC8028E830E406E4C9D3
:10088000FBE4CAFCE830E305E4C9CACBFCE8540742
:100890006010F8C3E913F9EA13FAEB13FBEC13FC4D
:1008A000D8F130F52FC3E49CFCEF9BFFEE9AFEEDF0
:1008B00099FDD0E0FBEF4E4D4C701222DB03020B92
:1008C000C8EC2CFCEF33FFEE33FEED33FDED30E7EB
:1008D000EB020BA3EF2BFFEE3AFEED39FDD0E0FB70
:1008E00050130BBB0003020BCBED13FDEE13FEEF19
:1008F00013FFEC13FC020BA3EC4D6011E8497017D9
:10090000ED33EC3304600DE4FCFFFEFD22E933E837
:10091000330470F8020BC1120B8C58046009E4CC4C
:1009200024815006285009020BCB284003020BC833
:10093000C0E0EB4A7044B98006D0E0FB020BB7EF91
:100940004E701CBD8008EBFFEAFEE9FD80EBE98DEF
:10095000F0A4FEE5F00209E1E9CDF9EAFEEBFFEFD4
:1009600089F0A4FCE5F0CE89F0A42EFFE435F0CDAB
:1009700089F0A42DFEE435F08067EF4E7005BD8050
:10098000D780C3EF8BF0A4ACF0EE8BF0A42CFCE48A
:1009900035F0F8EF8AF0A42CE5F038FCE433CB8D89
:1009A000F0A42CFCE5F03BF8EE8AF0A42CFCE5F07A
:1009B00038F8E433CF89F0A42CFCE5F038CF3400CC
:1009C000CE89F0A42FFFE5F03EFEE433C98DF0A4FC
:1009D0002EFEE5F039CD8AF0A42FFFE5F03EFEE4CF
:1009E0003DFD33D0E0FB50070BBB000F020BCBECFF
:1009F0002CFCEF33FFEE33FEED33FD020BA3020BB5
:100A0000CBEC5D046005E859047003020BC1120BC6
:100A10008C580460F6EC4860F2EC7004FDFEFF2296
:100A2000C860DB2481C85009C39860025006020BDD
:100A3000C89850CAF582E9294B4A7005AB82020B6F
:100A4000B775F0007C1A7880C3EF9BEE9AED994061
:100A50000DC3EF9BFFEE9AFEED99FDE842F0DC231B
:100A6000ACF0D0E0FFD0E0FED0E0FDAB8220E7109C
:100A70001BEB60BAEC2CFCEF33FFEE33FEED33FDE5
:100A8000020BA3E803F830E705C0F075F000EF2F84
:100A9000FFEE33FEED33FD40B830E7C280AA74F8B4
:100AA000CC6480CCC86480C8F58204604FC3EB9FDF
:100AB000F5F0EA9E42F0E99D42F0E89C45F0603C8A
:100AC000501DE5825FFFE582D313CB5BCBF42B5542
:100AD00082FB50280ABA002409B9002008801DE5CD
:100AE000825BFBE582D313CF5FCFF4C3132F558214
:100AF000FF50090EBE00050DBD00010CC3EB9FF5B4
:100B0000F0EA9E42F0E99D42F0E89C45F06007CC97
:100B10004820E701B3EC2275F020800E75F01080BC
:100B20000575F0087D007E007F003392D530D50337
:100B3000120E02EC334010EF33FFEE33FEED33FDC7
:100B4000EC33FCD5F0ED22E5F0247EA2D513CC9257
:100B5000E7CDCEFF22EDD2E7CD33EC3392D5248121
:100B60004006E4FFFEFDFC22FCE4CFCECDCC24E029
:100B7000501174FF80EDC3CC13CCCD13CDCE13CE6A
:100B8000CF13CF0470F030D5DE020E02E9D2E7C9F0
:100B900033E833F892D5EDD2E7CD33EC33FC500295
:100BA000B2D522EC30E7100FBF000C0EBE00080DCE
:100BB000BD00040BEB6014A2D5EB13FCED92E7FD36
:100BC0002274FFFCFDFEFF22E480F8A2D574FF131F
:100BD000FC7D80E480EFF920E73624F950037907A3
:100BE000E4F42402FBE582158270021583DBF6E053
:100BF00024FB501BE96014E4F0E5821582700215B5
:100C000083E004F0B40A08E4F0D9EE7401F00A229B
:100C1000C2D522ED33EC3392D5FA602AB4FF33ED1E
:100C2000C2E77BFF60067A0C7938E4227A0C7941BE
:100C300020D5047A0C793C224E614E002B494E4659
:100C4000002D494E4600E47A08F0A3DAFC7B0074DC
:100C50000722C083C082ECC0E0EDC0E0EEC0E0EF50
:100C6000C0E0EA75F010A4CAABF075F04DA42BFB00
:100C7000E435F0FCEA2410FAEB34C5FBEC34D9FC83
:100C8000EDC2E7FF75F056A4F42411C5F0F434C5A5
:100C90008FF0A42AE5F03BE43CF020E714120D4865
:100CA000D0E0FFD0E0FED0E0FDD0E0FC120A0180F1
:100CB00014F404120D48D0E0FFD0E0FED0E0FDD0E7
:100CC000E0FC1208F8D082D083E0FAEDD2E7CD3311
:100CD000EC332482FBE4C3CF33CFCE33CECD33CD40
:100CE00033DBF37B0775F00A846004F0A31B0AE58D
:100CF000F0F0A38FF0740AA4FFACF08EF0740AA495
:100D00002CFEACF050010C8DF0740AA42CFDE435DF
:100D1000F0F0A3DBDE7407223F80000041200000DA
:100D200042C80000447A0000461C400047C35000FF
:100D3000497424004B1896804CBEBC205A0E1BCA26
:100D40006753C21C749DC5AEFB60065407601C232C
:100D500023120D76EB54386009120D62120D7112D8
:100D600008F8ECF8EDF9EEFAEFCB22EB120D7180FA
:100D7000F1543803241C900D18FE93FC0EEE93FDE5
:100D80000EEE930ECE93FF22BB010689828A83E08A
:100D9000225002E722BBFE02E32289828A83E49387
:100DA00022BB010CE58229F582E5833AF583E02236
:100DB0005006E92582F8E622BBFE06E92582F8E224
:100DC00022E58229F582E5833AF583E49322BB018B
:100DD0000689828A83F0225002F722BBFE01F322A9
:100DE000F8BB010DE58229F582E5833AF583E8F049
:100DF000225006E92582C8F622BBFE05E92582C8F5
:100E0000F222C3E49FFFE49EFEE49DFDE49CFC22ED
:100E1000ECF0A3EDF0A3EEF0A3EFF022A88285831F
:100E2000F0D083D082120E33120E33120E33120E14
:100E300033E473E493A3C583C5F0C583C8C582C8F2
:100E4000F0A3C583C5F0C583C8C582C822F8E0FBFE
:100E5000A3A3E0F925F0F0E582158270021583E086
:100E6000FA38F022EBF0A3EAF0A3E9F022D083D025
:100E700082F8E4937012740193700DA3A393F87435
:100E80000193F5828883E4737402936860EFA3A3EF
:100E9000A380DF75F008758200EF2FFFEE33FECDE3
:100EA00033CDCC33CCC58233C5829BED9AEC99E52A
:100EB0008298400CF582EE9BFEED9AFDEC99FC0FBA
:100EC000D5F0D6E4CEFBE4CDFAE4CCF9A88222B882
:100ED00000C1B90059BA002DEC8BF084CFCECDFC07
:100EE000E5F0CBF97818EF2FFFEE33FEED33FDEC94
:100EF00033FCEB33FB10D703994004EB99FB0FD87D
:100F0000E5E4F9FA227818EF2FFFEE33FEED33FD1A
:100F1000EC33FCC933C910D7059BE99A4007EC9B19
:100F2000FCE99AF90FD8E0E4C9FAE4CCFB2275F0A9
:100F300010EF2FFFEE33FEED33FDCC33CCC833C8BA
:100F400010D7079BEC9AE899400AED9BFDEC9AFCC0
:100F5000E899F80FD5F0DAE4CDFBE4CCFAE4C8F96F
:100F600022E5082438F582E43400F583E005082200
:100F7000900035300703900038E475F001120E4DF3
:100F8000020D882000E97F2ED2008018EF540F2434
:100F900090D43440D4FF30040BEF24BFB41A005077
:100FA000032461FFE50960021509050CE50C7002D8
:100FB000050B30070E900035E475F001120E4DEF71
:100FC000020DCE021BE67403D2078003E4C207F5CC
:100FD00008900035120E64E4F509F50BF50CE509EF
:100FE00060077F20120FA480F5750AFFC201C200BE
:100FF000C202C203C205C206C208120F70FF700D02
:101000003007057F00120FB5AF0CAE0B22B4255F81
:10101000C2D5C204120F70FF24D0B40A00501A7552
:10102000F00A780930D50508B6FF0106C6A426F6F1
:1010300020D5047002D20380D924CFB41A00EF5017
:1010400004C2E5D2040212A7D20180C6D20080C039
:10105000D20280BCD2D580BAD20580B47F20120FD4
:10106000A42002077401B5090040F1120F61FF12BC
:101070000FA4020FDED208D2068095120F61FB1278
:101080000F61FA120F61F94A4B700679A57A137B4A
:10109000FF20022EE509602A7E008E8275830012F1
:1010A0000DA160060EEE650A70F0C2D5EBC0E0EA55
:1010B000C0E0E9C0E0EE121308D0E0F9D0E0FAD0C9
:1010C000E0FB120D88FF60AAEBC0E0EAC0E0E9C0D7
:1010D000E0120FA4D0E02401F9D0E03400FAD0E00F
:1010E000FBE50A0460DCD50AD98087D20280A2120F
:1010F00012EA60F7E50A700104120BD6A90A600D26
:10110000E50A600914F50A121392EF60F3EA30E77A
:1011100002F404C3995079EAF4250A0430E701E4A3
:1011200004F50A800D1212EA60C1EA050A250A12C6
:101130000BD6EA900064F030E701E4250A04D50AF2
:101140000420050114121308E4C0E0121392900069
:1011500064E0601320E70714F0120F8C802204F083
:10116000D0E014C0E07F00120F8CE50A6007120F78
:1011700083150A800B300503120F83D0E0020FDEC7
:10118000D0E00480C41212EA609EE50A04120BD675
:10119000900064EAF0E50A200502600104240412CC
:1011A000130874FF04C0E0121392120F8CE50A209A
:1011B00005026003120F83D0E0B50AE87F45120FE5
:1011C00096900064E07F2B30E7047F2DF404C0E0AC
:1011D000120FA4D0E075F00A84C0F0120F8DD0E099
:1011E000120F8D020FDE791080027908C206C20844
:1011F0008008D2D5790A8004790AC2D5E50A04703C
:1012000002F50AE4FAFDFEFF120F61FC7B082001E3
:1012100013120F61FD7B1030000A120F61FE120FD6
:1012200061FF7B20EC3382D592D55013C3E43000AC
:10123000069FFFE49EFEE42001039DFDE49CFCE488
:10124000CBF8C201EC700CCFCECDCCE824F8F8700E
:10125000F38017C3EF33FFEE33FEED33FDEC33FCC9
:10126000EB33FB994002FB0FD8E9EB300105F8D0D6
:10127000E0C448B201C0E00AEC4D4E4F78207B003C
:1012800070C2EAB50A0040BCC0E012130AD0F0D028
:10129000E0200104C4C0E0C4B201C0F0120F8DD040
:1012A000F0D5F0EB020FDE120E6D107B5311E658F5
:1012B000104C4C10484211EA4F11F24411F24910FF
:1012C000614311F85511254611854510EF4713C5A7
:1012D0005010502D10542E10772B105823107520BD
:1012E00013AE2A1010480000106FE50AB4FF037512
:1012F0000A06120F61FC120F61FD120F61FE120F40
:1013000061FF90005D020C13790AA2D5200314300E
:101310000509B910020404B9080104A2D520060287
:101320005001042002689202B509005034C0E07FE9
:10133000203003197F30A20272067205500F12137B
:1013400061C202C206C205C2087F30800F300503A9
:10135000E9C0E0120FA4300503D0E0F9D0E0B509F0
:10136000CC3005177F30B9100C120FA47F58300411
:10137000077F788003B90803120FA43002057F2D80
:10138000020FA47F202008F87F2B2006F322920270
:1013900080CF7F00B40700500B245DF582E4340059
:1013A000F583E0FF22286E756C6C2900D201120FC4
:1013B000613001F8C201780930D50108F602101039
:1013C0002D50434958120F612403B405004001E435
:1013D0009013C093120F95743A120F95D2037509AA
:1013E000040211E6121A1C75DA4275DB21E4F5D904
:1013F000D2AFD2AED2DE9000AF120E1C00000000C1
:1014000090006D120E1C3DA3D70A900065120E1CB1
:101410003CF5C28F900069120E1C3A83126F900047
:101420008F120E1C00000000AFA0900033E4F0A368
:10143000EFF0900093E0FCA3E0FDEC120B1CA8047D
:10144000A905AA06AB077F007E7C7D927C48120A24
:1014500001900071120E10E4900000F0A3F09000D3
:10146000B4E024FFFF9000B3E034FFFE900000E002
:10147000FCA3E0FDC39FEE6480F8EC648098505CB0
:10148000EDAE047802C333CE33CED8F92479F58299
:1014900074003EF583E0FCA3E0FDA3E0FEA3E0FFC3
:1014A000C004C005C006C007900000E0FEA3E078BD
:1014B00002C333CE33CED8F92475F58274003EF5DD
:1014C00083D007D006D005D004120E10900001E0A2
:1014D00004F0708A900000E004F08082900071E0D7
:1014E000FCA3E0FDA3E0FEA3E0FFC004C005C0062E
:1014F000C0079000B3E0FEA3E07802C333CE33CE42
:10150000D8F92471F58274003EF583D007D006D057
:1015100005D004120E10900033E0FEA3E0FFC37468
:10152000FF9FF0E49E900033F0AFA0900025E4F020
:10153000A3EFF0121743900021120E10900025E047
:10154000FCA3E0FDEC120B1C900021E0F8A3E0F9F5
:10155000A3E0FAA3E0FB120803900027120E1090FC
:10156000008FE0FCA3E0FDA3E0FEA3E0FF900027D6
:10157000E0F8A3E0F9A3E0FAA3E0FB12080790006B
:101580008F120E1090002BE0F8A3E0F9A3E0FAA36D
:10159000E0FB900027E0FCA3E0FDA3E0FEA3E0FF5A
:1015A00012080390002F120E10900027E0FCA3E019
:1015B000FDA3E0FEA3E0FFA3120E10900027E0FCC5
:1015C000A3E0FDA3E0FEA3E0FF90006DE0F8A3E040
:1015D000F9A3E0FAA3E0FB1208F89000AFE0F8A34B
:1015E000E0F9A3E0FAA3E0FB120807C004C005C0BD
:1015F00006C00790008FE0FCA3E0FDA3E0FEA3E09F
:10160000FF900069E0F8A3E0F9A3E0FAA3E0FB1281
:1016100008F8D003D002D001D000120807C004C0DF
:1016200005C006C00790002FE0FCA3E0FDA3E0FE8C
:10163000A3E0FF900065E0F8A3E0F9A3E0FAA3E0DF
:10164000FB1208F8D003D002D001D0001208079096
:1016500000AF120E10E4FFFEFDFC9000AFE0F8A317
:10166000E0F9A3E0FAA3E0FB120A9E500A9000AF53
:10167000120E1C3F800000E4FFFEFDFC9000AFE076
:10168000F8A3E0F9A3E0FAA3E0FB120A9E500A9047
:1016900000AF120E1C3F800000C3900026E0940FA4
:1016A000900025E064809480500A9000AF120E1CD8
:1016B000000000009000AFE0FCA3E0FDA3E0FEA36B
:1016C000E0FF120B55C374FF9FF5FA90003874FFCA
:1016D000F0A3741CF0A3742AF0900025E0FFA3E0AF
:1016E00090003BCFF0A3EFF0900021E0FCA3E0FDE1
:1016F000A3E0FEA3E0FF90003D120E1090008FE0EB
:10170000FCA3E0FDA3E0FEA3E0FF900041120E1059
:101710009000AFE0FCA3E0FDA3E0FEA3E0FF90009B
:1017200045120E107B017A007902120FC67F107EDF
:1017300027121C4D121C0D7B017A007902121ABC73
:10174000021428900037120E1C00000000E49000E4
:1017500035F0A3F09000B3E0FEA3E0FFC3900036A5
:10176000E09FEE6480F8900035E0648098505B90D4
:101770000037E0FCA3E0FDA3E0FEA3E0FFC004C04F
:1017800005C006C007900035E0FEA3E07802C33331
:10179000CE33CED8F92475F58274003EF583E0F897
:1017A000A3E0F9A3E0FAA3E0FBD007D006D005D070
:1017B00004120807900037120E10900036E004F073
:1017C0007092900035E004F0808A9000B3E0FCA3B2
:1017D000E0FDEC120B1CA804A905AA06AB079000BB
:1017E00037E0FCA3E0FDA3E0FEA3E0FF120A012224
:1017F000E49000B6F09000B6E004F0E0B4FFF6D25A
:10180000A0D2A1D2A2D2A39000B6740DF0C2A020A3
:10181000A4037401F020A5069000B67402F020A67F
:10182000069000B67403F0D2A0C2A120A4069000D6
:10183000B67404F020A5069000B67405F020A60644
:101840009000B67406F0D2A1C2A220A4069000B601
:101850007407F020A5069000B67408F020A6069044
:1018600000B67409F0D2A2C2A320A4069000B674F8
:101870000AF020A505E49000B6F020A6069000B678
:10188000740CF0D2A39000B6E0FF22C0E0C083C089
:1018900082C0D075D000C000C004C005C006C0071B
:1018A00030D964AFFB90008DE4F0A3EFF0E0F8E4F2
:1018B000F0E890008DF0AFEBA3E02FF090008DE00A
:1018C0003400F0900095E0FEA3E0FF90008DE0FC76
:1018D000A3E0FDD39FEE6480F8EC64809840028022
:1018E00009900095E0FEA3E0FFC3ED9FFFEC9E9002
:1018F0000093F0A3EFF090008DE0FFA3E09000953F
:10190000CFF0A3EFF0C2D9D007D006D005D004D0D5
:1019100000D0D0D082D083D0E032787FE4F6D8FDFA
:101920007581210219610213E4E493A3F8E493A3FF
:101930004003F68001F208DFF48029E493A3F85411
:1019400007240CC8C333C4540F4420C8834004F494
:1019500056800146F6DFE4800B01020408102040A7
:1019600080901C5FE47E019360BCA3FF543F30E590
:1019700009541FFEE493A360010ECF54C025E0601C
:10198000A840B8E493A3FAE493A3F8E493A3C8C5EA
:1019900082C8CAC583CAF0A3C8C582C8CAC583CADB
:1019A000DFE9DEE780BE9000BAEBF0A3EAF0A3E93E
:1019B000F0E4A3F09000BDE0C39DEC6480F8748077
:1019C000985042121C72EF640D6004EFB40A189034
:1019D00000BAE0FBA3E0FAA3E0F9A3E0F582758387
:1019E00000E4120DE0801E9000BAE0FBA3E0FAA331
:1019F000E0F9A3E0F582758300EF120DE09000BDE1
:101A0000E004F080AF9000BAE0FBA3E0FAA3E0F9B5
:101A1000AE04AF058F828E83E4020DE0C2C0C2C166
:101A2000758030D2C27F2C7E01121C4DC2C27F64F1
:101A30001E121C4DD2C27F2C0E121C4DC2C27F64DE
:101A40001E121C4DD2C27F2C0E121C4DC2C27F64CE
:101A50001E121C4D758038121C46758008121C46DB
:101A6000758001121C46758006121C4675800C128A
:101A70001C46E49000B9F022C2D5E830E70FB2D599
:101A8000E4C39BFBE49AFAE499F9E498F8EC30E7B4
:101A900017B2D5121AAE120ECFE4C39BFBE49AFA2A
:101AA000E499F9E498F88003120ECF30D50DE4C321
:101AB0009FFFE49EFEE49DFDE49CFC22900035EB3C
:101AC000F0A3EAF0A3E9F0E49000B5F09000B5E0EF
:101AD000FFC394205021900035E0FBA3E0FAA3E07F
:101AE000F98F82758300120DA1FF600B121AF89016
:101AF00000B5E004F080D522900038EFF09000B9F6
:101B0000E0B410047F1080099000B9E0B42005E42F
:101B1000FF121B61D2C0C2C1900038E0F580D2C272
:101B20007F327E00121C489000B9E004F022900041
:101B3000BEEBF0A3EAF0A3E9F0E4FE9000BEE0FB08
:101B4000A3E0FAA3E0F98E82758300120DA1FF6075
:101B500006121C6A0E80E47F0D121C6A7F0A021CAA
:101B60006A9000B9E0C394205028EFF0C39410505D
:101B700005E0248080069000B9E024B0F580C2C062
:101B8000C2C1D2C27F647E00121C4DC2C27F32121B
:101B90001C4D2243F60175F32043F30853F3EFAFD6
:101BA000F5EF75F004A4ADF47C002DFEEC35F0905B
:101BB00000B7F0A3CEF09000B7E0FEA3E0FF224311
:101BC000892053892FC29FD29E438780AB07AA06E4
:101BD000E4F9F87F247EF4FDFC121A78EFF404F5A2
:101BE0008DD29CD28E22EFB40A07740D121BF174B1
:101BF0000A309811A899B8130CC2983098FDA8998A
:101C0000C298B811F63099FDC299F59922C2C0C2A6
:101C1000C1758001D2C27F327E00121C4DC2C27FCC
:101C200064121C4DE49000B9F0225B25645D522DD6
:101C3000415B252E31665D445B252E31665D525B2E
:101C4000252E31665D00D2C2121C4DC2C2E4FDFCDD
:101C5000C3ED9FEC9E50070DBD00010C80F22242A7
:101C600000B700004200B30006008F993099FDC212
:101C700099223098FDAF99C298229000B9E0FF22D6
:00000001FF
